:0600000002005602013867
:03000B0002016887
:0300130002013BAC
:03001B00020129B6
:0100230032AA
:03002B0002016B64
:01003300329A
:01003B003292
:01004300328A
:03004B0002013E71
:0300530002018027
:0300AF000200B29A
:0500B2001200B780FE02
:0D00B70075812012011190030875F0801270
:0600C40001711202271277
:0900CA0000FF90030F75F0801295
:0E00D30000F6E4C0E07582011200F015819085
:0800E100032075F0801200F607
:0200E90080FE97
:0100EB0022F2
:0100EC0022F1
:0300ED000280008E
:0300F00002800388
:0300F30002800682
:0300F6000280097C
:0300F90002800C76
:0300FC0002800F70
:0300FF000280126A
:0301020002801563
:030105000280185D
:0301080002801B57
:03010B0002801E51
:03010E000280214B
:0301110002802445
:030114000280273F
:0301170002802A39
:03011A0002802D33
:03011D000280302D
:0301200002803327
:0301230002803621
:030126000280391B
:0301290002803C15
:03012C0002803F0F
:03012F0002804209
:0301320002804503
:03013500028048FD
:0301380002804BF7
:03013B0002804EF1
:03013E00028051EB
:03014100028054E5
:03014400028057DF
:0301470002805AD9
:03014A0002805DD3
:03014D00028060CD
:03015000028063C7
:03015300028066C1
:03015600028069BB
:0301590002806CB5
:03015C0002806FAF
:03015F00028072A9
:03016200028075A3
:030165000280789D
:0301680002807B97
:03016B0002807E91
:03016E000280818B
:0301710002808485
:030174000280877F
:0301770002808A79
:03017A0002808D73
:03017D000280906D
:01018000324C
:0703080030302E39373000C0
:0E030F002D2020416B53656E4D61696E2020DC
:03031D002D200090
:0E0320007775726465207665726C6173736523
:03032E006E20003E
:0E01810012010EAA82C374B49AE433F58222EE
:0E018F0090000DE0FA7401C39AFA90000DF092
:0E019D0090000EE0FB7401C39B90000EF0C0BA
:0E01AB0002758200120126158190000EE0FA06
:0E01B900C0027582011201261581900032E409
:0E01C700F5F0120141E4C0E075820012012340
:0E01D5001581E4C0E07582011201231581221C
:0401E3007A007B0023
:0D01E700C3EA9409EB648094805034EA244C
:0A01F40000FCEB3400FD8A068E8249
:0E01FE00C002C003C004C00512010EAE82D0C4
:0E020C0005D004D003D002C374B49EE433FEC8
:0C021A008C828D83F00ABA00C40B80C1F6
:0102260022B5
:0A022700C018E581F5182404F581E4
:0A02310090033175F0801200F69082
:0E023B00000DE0FAC002758200120126158146
:0E02490090000EE0FAC0027582011201261527
:0E0257008190000BE0FAC002758200120123B4
:0D026500158190000CE0FAC00275820112B4
:0E0272000123158112014DAA82AB83ACF0FD71
:0C028000A8180874D02AF674073B08F692
:0E028C00E43C08F6E43D08F67404C0E0758218
:0E029A000012012315817403C0E07582011269
:0A02A800012315819000097401F094
:0C02B20012014DAE82AF83AAF0FBA81829
:0E02BE0008C3EE96EF0896EA0896EB08964005
:0A02CC00E512018F90000974FFF0A5
:0E02D600E4C0E07582011200F0158175820807
:0A02E4001201811200FC758209125C
:0902EE0001811200FC75820A1264
:0802F70001811200FC80D88592
:0502FF001881D0182257
:0803310053656974653A200070
:0103390000C3
:01033A0000C2
:02033B000000C0
:02033D000000BE
:06008500E478FFF6D8FD4F
:080063007906E94400601B7AF4
:05006B0001900339784B
:030070000975A06F
:0A00730000E493F2A308B8000205B0
:08007D00A0D9F4DAF275A0FF2E
:08008B007800E84400600A79E6
:030093000075A055
:0600960000E4F309D8FCB0
:08009C007809E84400600C79CA
:0B00A40001900000E4F0A3D8FCD9FAA2
:0300560075811899
:0A005900120304E58260030200B206
:0403040075820022DC
:00000001FF
