:0600000002005602013867
:03000B0002016887
:0300130002013BAC
:03001B00020129B6
:0100230032AA
:03002B0002016B64
:01003300329A
:01003B003292
:01004300328A
:03004B0002013E71
:0300530002018027
:0300AF000200B29A
:0500B2001200B780FE02
:0D00B70075812012011190072F75F0801245
:0600C400017112040F128D
:0900CA0000FF90073675F080126A
:0E00D30000F6E4C0E07582011200F015819085
:0800E100074775F0801200F6DC
:0200E90080FE97
:0100EB0022F2
:0100EC0022F1
:0300ED000280008E
:0300F00002800388
:0300F30002800682
:0300F6000280097C
:0300F90002800C76
:0300FC0002800F70
:0300FF000280126A
:0301020002801563
:030105000280185D
:0301080002801B57
:03010B0002801E51
:03010E000280214B
:0301110002802445
:030114000280273F
:0301170002802A39
:03011A0002802D33
:03011D000280302D
:0301200002803327
:0301230002803621
:030126000280391B
:0301290002803C15
:03012C0002803F0F
:03012F0002804209
:0301320002804503
:03013500028048FD
:0301380002804BF7
:03013B0002804EF1
:03013E00028051EB
:03014100028054E5
:03014400028057DF
:0301470002805AD9
:03014A0002805DD3
:03014D00028060CD
:03015000028063C7
:03015300028066C1
:03015600028069BB
:0301590002806CB5
:03015C0002806FAF
:03015F00028072A9
:03016200028075A3
:030165000280789D
:0301680002807B97
:03016B0002807E91
:03016E000280818B
:0301710002808485
:030174000280877F
:0301770002808A79
:03017A0002808D73
:03017D000280906D
:01018000324C
:07072F0030302E3937300095
:0E0736002D2020416B53656E4D61696E2020B1
:030744002D200065
:0E0747007775726465207665726C61737365F8
:030755006E200013
:0E018100900014E0FA7401C39AFA900014F092
:0E018F00900015E0FB7401C39B900015F0C0BA
:0E019D00027582001201261581900015E0FA0D
:0E01AB00C0027582011201261581900032E417
:0E01B900F5F0120141E4C0E07582001201234E
:0E01C7001581E4C0E07582011201231581222A
:0401D5007A007B0031
:0D01D900C3EA9409EB648094805034EA245A
:0A01E60000FCEB3400FD8A068E8257
:0E01F000C002C003C004C00512010EAE82D0D2
:0E01FE0005D004D003D002C3746E9EE433FE1D
:0C020C008C828D83F00ABA00C40B80C104
:0102180022C3
:0C021900AA827401C39AFB2412F582E44F
:0C0225003400F583E0FC900016E0FDC3FF
:0E023100EC9D501FC003C0058B8212012315E7
:0A023F0081D003EB2412FBE434002D
:0B024900FC900016E08B828C83F022FA
:0A025400EA2412F582E43400F58379
:0E025E00E0FBB50525ED24FBFDC002C0058ABE
:0C026C00821201231581D002EA2412FA4C
:0C027800E43400FB900016E024FBFC8A3C
:04028400828B83F0F6
:010288002253
:0E028900900016E0C0E075820012012315817E
:0E029700900016E0C0E075820112012315816F
:0A02A500900016E0FA900012F090AD
:0502AF000013EAF0223B
:0E02B400AA82AB83ACF012070FFDE4BD01017E
:0102C2000437
:0E02C300FD601874012AFEE43BFF8C008E8261
:0D02D1008F8388F012070FFEBE010280042B
:0402DE007E0080021C
:0202E2007E019B
:0E02E400EE7027ED601874022AFDE43BFE8CDC
:0E02F200078D828E838FF012070FFDBD010273
:02030000800477
:040302007D008002F8
:020306007D0177
:06030800ED7003FD800210
:02030E007D016F
:0E031000ED703674022AFDE43BFE8C078D82F0
:0E031E008E838FF012070FFDBD01140ABA0086
:02032C00010BC3
:0E032E008A828B838CF012070FFABA010280CC
:01033C0004BC
:04033D007A008002C0
:020341007A013F
:06034300EA7003FA8002DB
:020349007A0137
:03034B008A822281
:0A034E00900011E0FA70030203D9D9
:0E035800900009E0FAA3E0FBA3E0FC8A828B90
:0E036600838CF012070F706774012AFDE43BD0
:0E037400FE8C078D828E838FF012070F705360
:0E03820074022AFAE43BFB8A828B838CF01211
:0E039000070F704190000CE0FAA3E0FBA3E021
:0E039E00FC8A828B838CF012070F702B740187
:0E03AC002AFDE43BFE8C078D828E838FF012BB
:0E03BA00070F701774022AFAE43BFB8A828B4D
:0D03C800838CF012070F7005900011E4F017
:0403D500758200220B
:0E03D900900010E0FA702B90000CE0FAA3E008
:0E03E700FBA3E0FC8A828B838CF01202B4E54B
:0E03F5008260139000117401F0900010E090EF
:08040300001004F075820122D3
:04040B0075820022D4
:0A040F00C018E581F5182404F581FA
:0A04190090075875F0801200F6906D
:0E0423000014E0FAC002758200120126158155
:0E043100900015E0FAC0027582011201261536
:0E043F0081900012E0FAC002758200120123C3
:0D044D001581900013E0FAC00275820112C3
:08045A00012315811201D59068
:0E0462000000E0FABA0139900001E0FABA0198
:0E04700031900002E0FABA012990076075F0A1
:0C047E00801200F67A017B0090000974E7
:0A048A0006F0A37400F0A3E4F09064
:07049400000C7400F0A374DA
:07049B0000F0A3E4F0806310
:0E04A200900006E0FCBC0139900007E0FCBCB5
:0E04B0000131900008E0FCBC0129900767753F
:0D04BE00F0801200F67A007B0190000974B6
:0A04CB0000F0A37400F0A3E4F09029
:0704D500000C7406F0A37493
:0704DC0000F0A3E4F0802210
:0A04E3001200FF90076D75F0801203
:0E04ED0000F6E4C0E07582011200F015819067
:0804FB00077A75F0801200F68B
:0205030080FE78
:0E050500C002C0031201D5D003D00290000343
:07051300E0FCBC01028012B4
:0A051A00900004E0FCBC0102800820
:08052400900005E0FCBC01158C
:0E052C00758200C002C003120120AC82D00311
:07053A00D002BC010280C4E5
:0E054100C003C002C00312014DAC82AD83AEF8
:0C054F00F0FFA81808744C2CF6741D3D39
:0E055B0008F6E43E08F6E43F08F69000167439
:0E0569000AF0740AC0E07582001201231581A9
:0E057700900016E0C0E075820112012315818C
:0E058500D003D002900016E0FB900012F09020
:0C0593000013EBF090000F7401F0D00397
:0E059F00C003C002C0031201D5D00312014DEB
:0C05AD00AB82AC83ADF0FED002A81808B1
:0E05B900C3EB96EC0896ED0896EE0896D0037C
:0C05C700400C12018190000F74FFF00244
:0205D30006F030
:0A05D50090000FE0FCBC010280035F
:0305DF000206927F
:0E05E200C002C00312034EAD82D003D002BD92
:0E05F000014790000F7404F0C002C003E4C085
:0E05FE00E08B821201231581D003D002EB2482
:0A060C0012F582E43400F583E4F0F7
:0E061600C002C0037404C0E08A8212012315E2
:0C06240081D003D002EA2412F582E434F5
:0906300000F5837404F002059F3B
:0E063900900004E0FDBD011A900003E0701473
:0E064700900005E0700EC002C003120289D0C0
:0606550003D00202059F24
:0E065B00900003E0FDBD0111758200C002C0D9
:0B06690003120219D003D00202059F0B
:0A067400900005E0FDBD01028003C7
:03067E0002059FD3
:0E068100758201C002C003120219D003D0021C
:03068F0002059FC2
:0C069200BC0424900003E0600302059FFC
:09069E00900004E0600302059FD6
:0906A700900005E0600302059FCC
:0906B00090000F7405F002059F93
:0506B900BC05028003F6
:0306BE0002059F93
:0A06C100900003E0FCBC010280176A
:0A06CB00900004E0FCBC0102800D69
:0A06D500900005E0FCBC0102800368
:0306DF0002059F72
:0E06E200C002C003120289D003D00202059F9D
:0E06F0001200FFE4C0E07582001200F01581D8
:0906FE0090078875F0801200F6E7
:0807070080FE851881D0182244
:0807580053656974653A200045
:070760007265636874730009
:060767006C696E6B73006B
:0D076D004552524F523A20536569746500A1
:0E077A006E696368742065726B616E6E740048
:0E07880050726F6772616D6D20456E64650082
:010796000062
:010797000061
:01079800015F
:0207990000005E
:02079B0000005C
:01079D00005B
:06008500E478FFF6D8FD4F
:080063007908E94400601B7AF2
:05006B000190079678EA
:030070000F75A069
:0A00730000E493F2A308B8000205B0
:08007D00A0D9F4DAF275A0FF2E
:08008B007800E84400600A79E6
:030093000075A055
:0600960000E4F309D8FCB0
:08009C00780FE84400600C79C4
:0B00A40001900000E4F0A3D8FCD9FAA2
:0300560075811899
:0A00590012072BE58260030200B2DB
:0E070F0020F71430F6148883A88220F507E640
:06071D00A8837583002291
:03072300E280F77A
:03072600E4932237
:02072900E022CC
:04072B0075820022B1
:00000001FF
